:10000000F8FF022099010000A11900006B190000FF
:100010006B1900006B1900006B1900006B190000D0
:100020006B1900006B1900006B190000A11900008A
:10003000A11900006B190000790D0000090D0000E6
:10004000A1190000A1190000A1190000A1190000C8
:10005000A1190000A1190000A1190000A1190000B8
:10006000A1190000A1190000A1190000A1190000A8
:10007000A1190000A1190000A1190000A119000098
:10008000A1190000A1190000A1190000A119000088
:10009000A1190000A1190000A1190000A119000078
:1000A000A1190000A1190000A1190000A119000068
:1000B000A1190000A1190000A11900008D0700007E
:1000C000A119000049050000A1190000F90B00006A
:1000D000A11900002D060000A1190000A1190000BF
:1000E000A1190000A1190000A1190000A119000028
:1000F000A1190000A1190000A1190000A119000018
:10010000A1190000A1190000A1190000A119000007
:10011000A1190000990F0000A1190000A119000009
:10012000A1190000A1190000A1190000A1190000E7
:10013000A1190000A1190000A1190000A1190000D7
:10014000A1190000A1190000DD060000A11900009E
:1001500071080000A1190000A1190000A1190000F8
:10016000A1190000A1190000A1190000A1190000A7
:10017000A1190000A1190000A1190000A119000097
:10018000A1190000A1190000A1190000A119000087
:10019000A1190000A119000008B55D4B4CF22052D6
:1001A0001A804DF628121A8000BF00BF102223F8D3
:1001B0000E2CA3F51F43DE3B4FF030621A60554A08
:1001C0009A60554ADA60554B4FF470021A60544AEF
:1001D000136813F4807301BF52490B604FF4A853A6
:1001E0001360514B51491A78100742BF1A7842F0F8
:1001F00008021A704E4B2A221A704E4A4E4B8B42FE
:1002000004D252F8040F43F8040BF8E74B4B4C4A66
:100210000021934202D243F8041BFAE7494A4A48B4
:10022000002350F8231042F823100133662BF8D135
:10023000464B474A802103F8011B9342FBD1454BB3
:10024000404A1A60444B8A221A70A3F58053242234
:100250005A70A0221A709A799107FCD59A79D20621
:10026000FCD43E4A937903F00C03082B3B4BF9D1A5
:1002700003221A7146225A719A799406FCD537499D
:100280008A79364B5006FBD5354A4FF082711160A2
:100290000921516020221A709A7902F00C020C2A6E
:1002A000FAD1304B304A1A60304B314A1A60002480
:1002B00007225C6043F8042C2E4AC3F80C2D62B66A
:1002C00000F0DFFD174B1A68D1070AD52A4A2B49DF
:1002D0001C60146042F8041C10221A60284A294944
:1002E0001160294A127852060ED52549254A086818
:1002F000904209D12048214C00221A60026040F847
:10030000044C102018600A6001F07CFB01F064FBD3
:100310000E200540823F04000100002B88ED00E024
:1003200010D0034014D0034002D00740D40BFF1F6D
:1003300000E00740AC1B0000F806FF1FD40BFF1FB6
:10034000B40FFF1F0002FF1F0000000000E400E0E8
:1003500056E400E008ED00E0005006400040064092
:100360004480044004800440C010050014E000E014
:10037000BFD401000000202004D0034000DD6850FD
:100380001CE00340A5C3945A00F00740FFFFFFFFA5
:10039000FFFFFFFFFFFFFFFFFFFFFFFFFFFFFFFF6D
:1003A000FFFFFFFFFFFFFFFFFFFFFFFFFFFFFFFF5D
:1003B000FFFFFFFFFFFFFFFFFFFFFFFFFFFFFFFF4D
:1003C000FFFFFFFFFFFFFFFFFFFFFFFFFFFFFFFF3D
:1003D000FFFFFFFFFFFFFFFFFFFFFFFFFFFFFFFF2D
:1003E000FFFFFFFFFFFFFFFFFFFFFFFFFFFFFFFF1D
:1003F000FFFFFFFFFFFFFFFFFFFFFFFFFFFFFFFF0D
:10040000FFFFFFFFFFFFFFFFFFFFFFFFDEF9FFFF23
:1004100010B5054C237833B9044B13B10448AFF33E
:1004200000800123237010BDD40BFF1F00000000CB
:10043000B01B0000084B10B51BB108490848AFF3CA
:1004400000800848036803B910BD074B002BFBD0A0
:10045000BDE81040184700BF00000000D80BFF1F88
:10046000B01B0000D40BFF1F000000000A4B93F8E4
:1004700080223AB1012210B183F88020704783F8BE
:1004800000217047054B1A6810B142F0030201E0E9
:1004900022F002021A6070471410FE4314B00440A8
:1004A000014B93F8000270471410FE43074B0122E2
:1004B00083F8802203F17C4303F5D4234FF4A27226
:1004C0001A601A6822F020021A6070471410FE4366
:1004D00010B472B6164AD378032B1DD8DFE803F0A8
:1004E0001714021A134B05210488D17013F0080F5A
:1004F00014BFC822882242EA044208301A605860B9
:1005000062B65DF8044B704702210B4BECE7032108
:10051000084BE9E70421F8E71369054933B10B6A91
:100520005860106262B65DF8044B70470861F8E7E6
:10053000F00BFF1F9000FF1F9800FF1F014B188D4D
:10054000704700BFF00BFF1F70B52F4A137913F0EF
:10055000300F25D072B6937D03F0FF0423B9D37911
:100560004023537462B61BE062B6284991F82C30E0
:1005700091F82D50DBB2EDB2581C402828BF002066
:10058000A842D67918BF0B18F6B21CBF83F82E60AC
:100590000346601E10F0FF04EED1DBB281F82C3070
:1005A000194AD078C0B2060621D513791D061ED58A
:1005B000164991F86E5091F86F30EDB2DBB2AB4254
:1005C0000CD00133282B28BF00231479CC1894F8C1
:1005D0007040E4B2D471147D072CF0D9DBB281F8FD
:1005E0006F30094B1A79140644BF7C22DA70410639
:1005F00009D5054B1A79520605D5044A002182F81F
:1006000098103C22DA7070BD00B00640F00BFF1F5E
:10061000054B93F82C0093F82D20C0B2D3B298422A
:1006200038BF4030C01A7047F00BFF1F10B5224B87
:100630001A79920613D5214AD97992F8993092F80D
:100640009A0001333F2BC8BF0023834218BFD01844
:10065000C9B21EBFDBB280F89B1082F899301648F1
:10066000C278D2B2130619D503791C0616D51349E0
:1006700091F8DB4091F8DC30DBB29C4202D16C2374
:10068000C3700BE00133282B28BF0023CC18DBB24A
:1006900094F8DD40E4B2C47181F8DC30510609D52C
:1006A000054B1A79520605D5044A002182F8051136
:1006B0002C22DA7010BD00BF00D00640F00BFF1FE7
:1006C000054B93F8990093F89A20C0B2D3B29842A0
:1006D00038BF4030C01A7047F00BFF1F10B5224BD7
:1006E0001A79920613D5214AD97992F8063192F8EF
:1006F000070101333F2BC8BF0023834218BFD01826
:10070000C9B21EBFDBB280F8081182F80631164864
:10071000C278D2B2130619D503791C0616D513492F
:1007200091F8484191F84931DBB29C4202D16C23E7
:10073000C3700BE00133282B28BF0023CC18DBB299
:1007400094F84A41E4B2C47181F84931510609D59F
:10075000054B1A79520605D5044A002182F8721118
:100760002C22DA7010BD00BF00A00E40F00BFF1F5E
:10077000054B93F8060193F80721C0B2D3B2984213
:1007800038BF4030C01A7047F00BFF1F70B52F4ABA
:10079000137913F0300F25D072B6937D03F0FF0468
:1007A00023B9D3794023537462B61BE062B628495B
:1007B00091F8733191F87451DBB2EDB2581C4028B6
:1007C00028BF0020A842D67918BF0B18F6B21CBF6C
:1007D00083F875610346601E10F0FF04EED1DBB2B2
:1007E00081F87331194AD078C0B2060621D5137941
:1007F0001D061ED5164991F8B55191F8B631EDB2E6
:10080000DBB2AB420CD00133402B28BF002314795C
:10081000CC1894F8B741E4B2D471147D072CF0D908
:10082000DBB281F8B631094B1A79140644BF7C2239
:10083000DA70410609D5054B1A79520605D5044AE6
:10084000002182F8F7113C22DA7070BD00A006404A
:10085000F00BFF1F054B93F8730193F87421C0B29E
:10086000D3B2984238BF4030C01A7047F00BFF1F18
:1008700010B5224B1A79920613D5214AD97992F8EC
:10088000F83192F8F90101333F2BC8BF00238342AE
:1008900018BFD018C9B21EBFDBB280F8FA1182F8B7
:1008A000F8311648C278D2B2130619D503791C065E
:1008B00016D5134991F83A4291F83B32DBB29C428B
:1008C00002D16C23C3700BE00133282B28BF002317
:1008D000CC18DBB294F83C42E4B2C47181F83B32EC
:1008E000510609D5054B1A79520605D5044A00214F
:1008F00082F864122C22DA7010BD00BF00B00E40E6
:10090000F00BFF1F054B93F8F80193F8F921C0B2E3
:10091000D3B2984238BF4030C01A7047F00BFF1F67
:1009200072B6804A804B81491160702280211A7012
:100930001A46197013781B06FCD52DE9F0417C4B43
:1009400084B01B6862B67B4A7B4E93429CBF0A22EE
:100950005343A6FB0312D20802EB8201A3EB41032F
:1009600030338DF804301346002A00F0C08001A80F
:1009700004460021A6FB0352D20802EB8205A3EB3A
:100980004503303304F8013F01311346002AF1D109
:1009900004AC0C4401AA0A4404F80B3C1478057812
:1009A00000F8014B0133CC1AA34202F80159F5DBE0
:1009B0009DF80430002B00F09D80604A9DF80510E2
:1009C0005380002900F09C809DF806309180002B18
:1009D00000F098809DF80710D380002900F09480E3
:1009E0009DF808301181002B00F090809DF80910CF
:1009F0005381002900F08C809DF80A309181002BF2
:100A000000F088809DF80B10D381002900F08480CD
:100A10009DF80C301182002B00F082809DF80D10A3
:100A2000538200297AD091821621454B454C117092
:100A300000221A605A609A60DA601A615A619A61FB
:100A4000DA611A625A629A62DA621A635A639A63C4
:100A5000DA631A645A649A64DA641A655A659A65A4
:100A6000DA651A665A669A66DA661A675A679A6784
:100A7000DA6721683448C3F8802041F4802121607E
:100A80000168DFF8E0C0C3F8842041F040710160E4
:100A90002E4F2F4EDFF8D0E02E4DDFF8D080C3F37D
:100AA000072104F527348CF8001004F57774C3F39C
:100AB00007411B0E397000F5C9203370FF238EF8F3
:100AC000003084302B70244F2370244E244901239E
:100AD00088F8003070258CF864204FF40014102240
:100AE00003703D7034600A7004B0BDE8F0818DF889
:100AF00005205DE7114A194601314900C9B294E762
:100B00000121F9E70221F7E70321F5E70421F3E7E3
:100B10000521F1E70621EFE70721EDE70921EBE7E2
:100B20000821E9E7040002400000024000000741FC
:100B30000C0002407F969800CDCCCCCCF806FF1F6D
:100B40000000FF1F3480044000D80040B020074060
:100B5000B42007408820074035E400E004E100E0CD
:100B6000082107409C200740802007409420074030
:100B700010B472B6194B1A6E32B39A6ECAB162B61D
:100B80001749184B184A401AA3FB00131B090021F0
:100B90000B2B82F8651209D872B614484FF0004149
:100BA000826921FA03F31A43826162B65DF8044B4D
:100BB00070470D490E4C91F865229C660830013A49
:100BC000D86681F86522F0E707490A4C91F865225A
:100BD0001C660830013A5866F3E700BF0000FF1FAB
:100BE0009803FF1F398EE338F00BFF1FF806FF1F35
:100BF000C80040008800400010B5224B1A799206C8
:100C000013D5214AD97992F8663292F867020133F6
:100C10003F2BC8BF0023834218BFD018C9B21EBFE4
:100C2000DBB280F8681282F866321648C278D2B217
:100C3000130619D503791C0616D5134991F8A84255
:100C400091F8A932DBB29C4202D16C23C3700BE055
:100C50000133282B28BF0023CC18DBB294F8AA421A
:100C6000E4B2C47181F8A932510609D5054B1A794D
:100C7000520605D5044A002182F8D2122C22DA70DD
:100C800010BD00BF00C00640F00BFF1F054B93F8DE
:100C9000660293F86722C0B2D3B2984238BF4030A0
:100CA000C01A7047F00BFF1F1649D1F8D43230B587
:100CB00013B98360C36009E004681A68944208D2DB
:100CC0000025121B8360C560D8601A60C1F8D40289
:100CD00015E002681C689968121B026061B10C681B
:100CE000A2420B46F5D28160C968C160D860C16874
:100CF000A21A88601A6002E08160C36098600223D3
:100D0000037530BDF00BFF1F70B51A4DD5F8D83202
:100D1000D5F8D4420133C5F8D8320026CCB12368C7
:100D200013B1013B236014E0A26802B1D3602069D3
:100D3000C5F8D422036826751B682246002198470F
:100D400063681BB123602046FFF7AEFFD5F8D4429D
:100D5000E4E7EFF3108372B60022D5F8DC02C5F8A1
:100D6000DC2203B962B620B18468FFF79DFF2046FC
:100D7000F9E770BDF00BFF1F38B50B4D0024EFF302
:100D8000108272B6D5F8E00250B14369C5F8E0327E
:100D900003B19C6102B962B6447783689847EEE775
:100DA00002B962B638BD00BFF00BFF1F38B5194954
:100DB00091F8E4520C4665BBFFF74CFDFFF728FCA9
:100DC000FFF764FFFFF77CFCFFF7D2FCFFF79AFD0B
:100DD00081F8E452EFF30583DBB9EFF3108372B6C9
:100DE000D1F8E80210B191F8EC1211B18BB962B6EA
:100DF00038BD012284F8EC224269C4F8E82202B12D
:100E0000916103B962B6002545778368984784F8F5
:100E1000EC5238BDF00BFF1F72B60C4B0C4A0D495B
:100E20001B68D2F8D822096862B6490102D5322B74
:100E300088BF0132C3F5EA337820BF33B3FBF0F348
:100E40004FF47A7000FB0230704700BF18E000E0FA
:100E5000F00BFF1F04ED00E038B50446FFF7DCFFA0
:100E6000054624B938BD013C0AD005F57A75FFF76F
:100E7000D3FF401BB0F57A7FF5D2FFF797FFF6E777
:100E800038BD3A4B3A494FF0006270B51A604FF0E6
:100E900080521A604FF000521A604FF080421A6080
:100EA0004FF000421A60334B334D344C344E002225
:100EB0004EF6FF701A60586028230B608B600B6140
:100EC0008B610B628B620B638B63103101F5012127
:100ED0002B6023600B608B600B618B610B628B62FC
:100EE0000921316006F58056043632607060B360C7
:100EF000336146F8041C06F5FE2632607060B3606C
:100F0000336146F8041C06F58056326070602B6031
:100F100023601C4B1C481960A3F58A2360211970BB
:100F2000E1215970A3F56333A3F57E73392119606C
:100F30001323036000F5FF2000F2FC7001601349E9
:100F40000B60134B1A6003F5002319201A60114A35
:100F50008423136002F500221360FFF77DFFFFF783
:100F6000DFFC40F21310BDE8704075E704E100E0DB
:100F70000C800340048003400C900B4014900B4005
:100F80000080034000900B400CB003400CB00B40BD
:100F900020B0034024B003402DE9F04FB44F87B098
:100FA0005CE0B44D4FEA930805EBC809013AD9F863
:100FB000041003F008035FFA82FAA1F1080003F0BD
:100FC000FF02002B40F0258155F838301B0C9EB2F3
:100FD00021F8086C002B00F01381A74C21F8062C97
:100FE0004FEA8A0304EB030C41F8042CDCF81013DD
:100FF000002900F08182DCF82013486004EB4A02EB
:101000001C44938CC4F82003334493849A4972B6E9
:101010009A488269B2FA82F30B2B00F370824FF088
:101020000041D94022EA0102826162B6944C95489F
:10103000954A03EBC30304EBC30119F0080F18BF73
:10104000024601F108060020C9F8046045F838207E
:1010500044F8330048608D4B08221A708B4B1D7882
:10106000EDB26A071ED5844C94F8F832BBB194F8FF
:10107000F92202F0FF032AB1013BDBB284F8F93216
:1010800003B900BE94F8FA227B4C02F0FF0332B1A0
:10109000013BDBB284F8FA32002B00F0F2817B4B8B
:1010A00004221A7005F0080303F0FF02002B00F081
:1010B0000381774B1B78DBB21A097FF472AF9B0870
:1010C0006C4D55F8332005EBC301C2F38302013A9E
:1010D00049680C2A00F29080DFE802F083838E8E4C
:1010E0008E8E8E8E458E8E8E07000868624C4A6802
:1010F000644E45F83360C4F8042340F2816382B241
:101100000021C4F800039A424FF00100C4F808130C
:101110002961A96184F80C0300F2EB80B2F5D06F6D
:1011200080F09082B2F5817F00F0458200F20C825F
:10113000802A00F0B383822A40F04482B4F804335A
:1011400003F07F03042B00F23D82524A84F8F01230
:101150009B001A4484F8F11213789E0740F1A28391
:1011600084F8F0029EE3444CD4F808335BB3B4F83F
:10117000362394F80C0394F83513402A164641F0B0
:10118000020C28BF4026002880F00100A2EB0602D6
:101190000CBF4FF0880E4FF0C80E84F80C0305EB1F
:1011A000CC0092B24EEA064E81F001014360A4F8F1
:1011B000362345F83CE0334484F83513002A00F028
:1011C000D880C4F80833B4F800332B4AB3F5A06FC5
:1011D00012D1314B92F802131970002382F80133B7
:1011E0000AE0254CB4F8000342F22102904200F0DC
:1011F000C480244A45F83320284B01221A702AE77C
:10120000204A214B19F0080F18BF134645F8383013
:1012100021E71B49184C411AA7FB013109090B2989
:1012200011D894F8653223B194F8F832002B40F0CD
:10123000FA8172B6114E4FF00040B36920FA01F105
:101240000B43B36162B604EB8A000B494368002B81
:1012500000F05F8111F80A605968416003F10801EC
:10126000C9F80410032E1ED8DFE806F0413F3D1AEE
:10127000398EE3380000FF1FF00BFF1FF806FF1F39
:101280009803FF1FC80040008800400080200740EE
:1012900090200740C0200740982007409420074036
:1012A000042104F80A101A8819F0080F0CBF8823CB
:1012B000C82343EA0243A9E7E80700F1F5802906BD
:1012C00000F13881AA0706D5C24AC3491378022023
:1012D000DBB213700870EB0602D5BF4B10221A70F8
:1012E00007B0BDE8F08F0521DBE70221D9E7032134
:1012F000D7E742F221039A4200F0BF8072D8B2F5DC
:10130000086F00F0B681B2F5106F40F05B81DFF836
:10131000D08294F80233B14EDFF8DCA284F8F832C0
:1013200008F18009A34604E008F10808C14500F06F
:10133000C281D8F820301B06F6D5D8F8240008382A
:10134000CAEB0003A7FB03231B090B2BECD894F873
:10135000652222B19BF8F822002A40F0C38272B6BF
:101360004FF00041B26921FA03F31A43B26162B649
:10137000DAE7402E18BF002323E70A784E788878F2
:1013800084F83823CA7884F8396384F83A0384F8F7
:101390003B23D4F838230E794879897984F83D03C2
:1013A000862A94F8350384F83E1394F80C1384F8D5
:1013B0003C6304BF0F2284F8F92240F002020029A6
:1013C0000CBF8826C82645F8326005EBC20280F0C3
:1013D000010081F00101002684F8350384F80C1324
:1013E000566006E742F221239A4240F06482D4F824
:1013F000D82294F80233C4F8302384F8343300231D
:101400009C461E4699461A4694F8358348F0020ACF
:1014100005EBCA0E0028CEF804200CBF8822C82293
:10142000164388F0010E45F83A6084F80C1384F8EE
:1014300035E36B4E6B4A002B40F0E080B9F1400F72
:101440001BD14EF0020E05EBCE05654EC5F804C06B
:10145000002940F0EB80190441F08801402B84F80A
:101460000C0384F835830CEB030246F83E1004D1DC
:101470000023C4F80823A4F836335B4B01221A700A
:10148000BAE694F8FB3203F0FF06002B7FF407AEB8
:10149000D4F8FC32002B73D05A881A801846FFF714
:1014A00017F8C4F8FC62FAE54D4B4F4C1A61022064
:1014B0002070DFF840E14D48186098604949454D7B
:1014C000454F4B4E9A610D208EF80000FF2028708A
:1014D0004FF09F0E387032702871012601F550755B
:1014E00001F5607087F804E0267081F835235D60AF
:1014F000D86007B0BDE8F08FCCF810037EE562B687
:1015000091F865320022013345F8382081F86532C0
:10151000A1E511F80A30032B00F28E8001A252F8E7
:1015200023F000BF57100000571000007D15000089
:10153000751500002F49284B80220D2008701A7065
:10154000AA077FF5C8AEBFE640F202339A4240F0E8
:10155000AB81B4F8043303F07F03042B32D8B4F822
:10156000021379BB234A9B001A44137843F0020309
:10157000137044E7012304F80A306CE50023FAE70E
:1015800072B6164EB169B1FA81F20B2A00F3A4814A
:101590004FF00040D04021EA0001B16162B6164C24
:1015A00002EBC20204EBC20144F8323008464B6041
:1015B000FEF78EFF73E5B4F8043303F07F03042BCA
:1015C00040F27D810B4B0F221A70074B01221A70DB
:1015D00012E600BF8820074080200740F806FF1F62
:1015E0000000FF1FF00BFF1F942007408800400001
:1015F00098200740C02007409803FF1F402B7FF62C
:1016000020AF4EF0020E06EBCE05C5F804C089B13E
:10161000BA4982F80C0382F83583403B0CF1400252
:1016200046F83E1025E7FFF7A3FA0CE6190441F04F
:10163000C80113E7B249ECE719F0080F0CBF022309
:10164000032398E7B4F80203B4F80463AD4AAE4B41
:1016500003E00C335A68002AB4D019888142F8D1CB
:101660005988B142F5D1000A03280CBF10781889B7
:1016700005E094F8F83284F8F03204F53C72B4F8DE
:101680000633A249834280F0628191F8358348F0A5
:10169000020A05EBCA01402B994628BF4FF04009CA
:1016A0004A6002EB090CC9EB03034FEA094600212B
:1016B0000120C822B4E6DFF87CB2DFF86C82ABF51B
:1016C00043730193ABF53F73ABF5447202934FF054
:1016D000000ADBF8000010B38C494FF00049C8EB5A
:1016E000000EA7FB0E3E4FEA1E1EBEF10B0F436815
:1016F00012D894F865C2BCF1000F05D091F8F8C279
:10170000BCF1000F40F0C18072B6B06929FA0EFE3C
:101710004EEA0000B06162B61846002BDFD1019B93
:101720007B4918680023CBF8003041F82A3010B309
:1017300076494FF00049C8EB000EA7FB0E3E4FEA7A
:101740001E1EBEF10B0F436812D894F865C2BCF19F
:10175000000F05D091F8F8C2BCF1000F40F08C806A
:1017600072B6B06929FA0EFE4EEA0000B06162B6A8
:101770001846002BDFD101981378002101600298F0
:1017800040F8041B02906348023B20F81A10032B18
:1017900005D8DFE803F06F026F0201231370019B8D
:1017A0000AF1010A0433BAF1040F0BF1040B01939F
:1017B00002F101028DD158495848594ADFF84C814D
:1017C000DFF874C1002384F865322B63AB632B65AB
:1017D000AB654FF0150E0B70192180F800E0117009
:1017E00072B6B1694F48B1FA81F20B2A7DDC4FF035
:1017F000004E2EFA02FE21EA0E01816162B64A48CD
:101800003F49CCF8601002EBC20200EBC20101F1CB
:10181000080E40F83230CCF864E04B6072B6B26922
:101820004048B2FA82F30B2B00F388804FF000415E
:10183000D94022EA0102826162B63B482F4AAA6679
:1018400003EBC30300EBC302002102F1080640F8DA
:101850003310EE665160354B15221A7094F80C0364
:10186000002380F001012B67AB67C5F89030C5F805
:101870009830C4E5002391E7059104920393FFF7A4
:1018800077F9039B049A059972E7059104920393F3
:10189000FFF76EF9039B049A05993DE784F8F0126F
:1018A00084F8F1120220E8E6B2F5A06F7FF48AAE68
:1018B00000210120A3E542F221339A42F6E7B4F871
:1018C000021300297FF47EAE194A9B001A44137854
:1018D00023F00203137092E562B6012384F8FA3212
:1018E000FFF7DDBBFFF744F91EE562B698F8652205
:1018F000CCF86030531C88F865328FE7C800400090
:10190000880040001407FF1F401B0000F00BFF1F62
:10191000100FFF1F140CFF1FC4200740C8200740F2
:10192000CC200740F806FF1F9803FF1FD020074078
:10193000C0200740000FFF1F0000FF1F62B694F891
:10194000653200220133AA6684F8653283E74028B5
:10195000814628BF4FF04009C9EB00034FEA094612
:1019600002EB090C002101204EE508B50B4D2C4679
:101970002B68580301D5FFF70FFB2368590501D5E4
:10198000FEF704FF23681A0501D5FEF7DDFD236885
:10199000DB04EDD5FFF730F9EAE700BF34800440FF
:1019A00008B5FFF7E2FFFEE7FEE70A4908B50B6B53
:1019B00068B16A461844A2F50052904206D300F07E
:1019C0001BF80C2303604FF0FF3008BD0863184676
:1019D00008BD00BFF806FF1F08B5FEF767FDFEF75C
:1019E0005FFDB0FA80F04009FEF740FD4FF4FA7059
:1019F000FFF732FAF3E7FFFF014B1868704700BFAB
:101A0000D00BFF1F70B50F4E0F4D761BB61018BFD1
:101A1000002405D0013455F8043B9847A642F9D17B
:101A20000A4E0B4D761B00F0B7F8B61018BF002415
:101A300006D0013455F8043B9847A642F9D170BD51
:101A400070BD00BFA41B0000A41B0000AC1B000065
:101A5000A41B0000024B13B1024800F005B8704708
:101A600000000000751A0000002301461A461846BF
:101A700000F014B838B5074D074C2C1BA41005D046
:101A8000013C55F8043D9847002CF9D1BDE8384099
:101A900000F08CB800000000000000002DE9F047C5
:101AA000254C2568D5F84841064688469246994611
:101AB000C4B360681F2817DC431C76B104EB8005B3
:101AC0000122C5F888A0D4F8881182401143022E63
:101AD000C4F88811C5F808911ED00230636044F83C
:101AE00020800020BDE8F087144B03B34FF4C8708A
:101AF000AFF300800446D0B1D5F84831002780E824
:101B00008800C5F8484138460123C4F88871C4F8F4
:101B10008C71002EE1D0D1E7D4F88C110A43C4F8BF
:101B20008C21DAE705F5A674C5F84841C1E74FF006
:101B3000FF30BDE8F08700BF941B000000000000EC
:101B4000000100001407FF1F120000000002000047
:101B50005E07FF1F43000000000300005A07FF1F3D
:101B600000000000010309044207FF1F00000000FD
:101B7000020309042C07FF1F0000000003030904EF
:101B8000F806FF1F00000000000000000000000039
:101B900000000000A807FF1FF8B500BFF8BC08BC94
:0C1BA0009E467047551A000035040000F6
:041BAC00F8B500BFC9
:101BB0000C03000000000000000000000000000016
:101BC0000000000000000000FFFFFFFF12011001F5
:101BD00002000040C01683047602010203010000E7
:101BE000B40FFF1F1603550053004200200053009E
:101BF00065007200690061006C0018035400650004
:101C000065006E00730079006400750069006E0065
:101C10006F000403090409024300020100C03209F5
:101C20000400000102020100052400100105240146
:101C300001010424020605240600010705820310A1
:101C4000004009040100020A0000000705030240E9
:101C500000000705840240000000000000000000B2
:101C600000000000940AFF1FFC0AFF1F640BFF1F07
:101C70000000000000000000000000000000000064
:101C80000000000000000000000000000000000054
:101C90000000000000000000000000000000000044
:101CA0000000000000000000000000000000000034
:101CB0000000000000000000000000000000000024
:101CC0000000000000000000000000000000000014
:101CD0000000000000000000000000000000000004
:101CE00000000000000000000000000000000000F4
:101CF00000000000000000000000000000000000E4
:101D000000000000000000000100000000000000D2
:101D10000E33CDAB34126DE6ECDE05000B00000097
:101D200000000000000000000000000000000000B3
:101D300000000000000000000000000000000000A3
:101D40000000000000000000000000000000000093
:101D50000000000000000000000000000000000083
:0C2080000000000000000000A807FF1F87
:00000001FF
